{
  "contractName": "CompraventaInmobiliaria",
  "abi": [
    {
      "inputs": [
        {
          "internalType": "address",
          "name": "_notario",
          "type": "address"
        }
      ],
      "stateMutability": "nonpayable",
      "type": "constructor"
    },
    {
      "inputs": [],
      "name": "comprador",
      "outputs": [
        {
          "internalType": "address",
          "name": "",
          "type": "address"
        }
      ],
      "stateMutability": "view",
      "type": "function",
      "constant": true
    },
    {
      "inputs": [],
      "name": "contadorPropiedades",
      "outputs": [
        {
          "internalType": "uint256",
          "name": "",
          "type": "uint256"
        }
      ],
      "stateMutability": "view",
      "type": "function",
      "constant": true
    },
    {
      "inputs": [],
      "name": "contadorSolicitudes",
      "outputs": [
        {
          "internalType": "uint256",
          "name": "",
          "type": "uint256"
        }
      ],
      "stateMutability": "view",
      "type": "function",
      "constant": true
    },
    {
      "inputs": [],
      "name": "notario",
      "outputs": [
        {
          "internalType": "address",
          "name": "",
          "type": "address"
        }
      ],
      "stateMutability": "view",
      "type": "function",
      "constant": true
    },
    {
      "inputs": [
        {
          "internalType": "uint256",
          "name": "",
          "type": "uint256"
        }
      ],
      "name": "propiedades",
      "outputs": [
        {
          "internalType": "uint256",
          "name": "id",
          "type": "uint256"
        },
        {
          "internalType": "address",
          "name": "propietario",
          "type": "address"
        },
        {
          "internalType": "string",
          "name": "descripcion",
          "type": "string"
        },
        {
          "internalType": "uint256",
          "name": "precio",
          "type": "uint256"
        },
        {
          "internalType": "enum CompraventaInmobiliaria.EstadoPropiedad",
          "name": "estado",
          "type": "uint8"
        }
      ],
      "stateMutability": "view",
      "type": "function",
      "constant": true
    },
    {
      "inputs": [
        {
          "internalType": "uint256",
          "name": "",
          "type": "uint256"
        }
      ],
      "name": "solicitudes",
      "outputs": [
        {
          "internalType": "uint256",
          "name": "propiedadId",
          "type": "uint256"
        },
        {
          "internalType": "address",
          "name": "comprador",
          "type": "address"
        },
        {
          "internalType": "uint256",
          "name": "oferta",
          "type": "uint256"
        },
        {
          "internalType": "bool",
          "name": "aceptada",
          "type": "bool"
        },
        {
          "internalType": "bool",
          "name": "verificada",
          "type": "bool"
        }
      ],
      "stateMutability": "view",
      "type": "function",
      "constant": true
    },
    {
      "inputs": [
        {
          "internalType": "string",
          "name": "_descripcion",
          "type": "string"
        },
        {
          "internalType": "uint256",
          "name": "_precio",
          "type": "uint256"
        }
      ],
      "name": "registrarPropiedad",
      "outputs": [],
      "stateMutability": "nonpayable",
      "type": "function"
    },
    {
      "inputs": [],
      "name": "getTotalPropiedades",
      "outputs": [
        {
          "internalType": "uint256",
          "name": "",
          "type": "uint256"
        }
      ],
      "stateMutability": "view",
      "type": "function",
      "constant": true
    },
    {
      "inputs": [],
      "name": "getTotalSolicitudes",
      "outputs": [
        {
          "internalType": "uint256",
          "name": "",
          "type": "uint256"
        }
      ],
      "stateMutability": "view",
      "type": "function",
      "constant": true
    },
    {
      "inputs": [
        {
          "internalType": "uint256",
          "name": "_propiedadId",
          "type": "uint256"
        }
      ],
      "name": "solicitarCompraventa",
      "outputs": [],
      "stateMutability": "payable",
      "type": "function",
      "payable": true
    },
    {
      "inputs": [
        {
          "internalType": "uint256",
          "name": "_solicitudId",
          "type": "uint256"
        }
      ],
      "name": "aceptarSolicitud",
      "outputs": [],
      "stateMutability": "nonpayable",
      "type": "function"
    },
    {
      "inputs": [
        {
          "internalType": "uint256",
          "name": "_solicitudId",
          "type": "uint256"
        }
      ],
      "name": "rechazarSolicitud",
      "outputs": [],
      "stateMutability": "nonpayable",
      "type": "function"
    },
    {
      "inputs": [
        {
          "internalType": "uint256",
          "name": "_solicitudId",
          "type": "uint256"
        }
      ],
      "name": "verificarTransaccion",
      "outputs": [],
      "stateMutability": "nonpayable",
      "type": "function"
    }
  ],
  "bytecode": "0x60806040523480156200001157600080fd5b506040516200200538038062002005833981810160405281019062000037919062000107565b3373ffffffffffffffffffffffffffffffffffffffff168173ffffffffffffffffffffffffffffffffffffffff161415620000a9576040517f08c379a0000000000000000000000000000000000000000000000000000000008152600401620000a0906200015a565b60405180910390fd5b806000806101000a81548173ffffffffffffffffffffffffffffffffffffffff021916908373ffffffffffffffffffffffffffffffffffffffff160217905550506200022a565b600081519050620001018162000210565b92915050565b6000602082840312156200011a57600080fd5b60006200012a84828501620000f0565b91505092915050565b6000620001426026836200017c565b91506200014f82620001c1565b604082019050919050565b60006020820190508181036000830152620001758162000133565b9050919050565b600082825260208201905092915050565b60006200019a82620001a1565b9050919050565b600073ffffffffffffffffffffffffffffffffffffffff82169050919050565b7f456c206e6f746172696f206e6f2070756564652073657220656c2070726f706960008201527f65746172696f0000000000000000000000000000000000000000000000000000602082015250565b6200021b816200018d565b81146200022757600080fd5b50565b611dcb806200023a6000396000f3fe6080604052600436106100c25760003560e01c806384926dfa1161007f578063a2e51b0011610059578063a2e51b001461024d578063c1123deb14610276578063d41f70dd1461029f578063fd91c7d4146102ca576100c2565b806384926dfa146101df5780639d6e063414610208578063a03939fc14610224576100c2565b80630747a4fa146100c75780630bb5643b146100f25780630f50b6e71461013357806315c7dd7a1461015e57806350c257f4146101895780635ca0ca49146101b4575b600080fd5b3480156100d357600080fd5b506100dc61030b565b6040516100e991906116c6565b60405180910390f35b3480156100fe57600080fd5b50610119600480360381019061011491906112e9565b610315565b60405161012a9594939291906116e1565b60405180910390f35b34801561013f57600080fd5b50610148610400565b604051610155919061152b565b60405180910390f35b34801561016a57600080fd5b50610173610426565b60405161018091906116c6565b60405180910390f35b34801561019557600080fd5b5061019e61042c565b6040516101ab91906116c6565b60405180910390f35b3480156101c057600080fd5b506101c9610432565b6040516101d691906116c6565b60405180910390f35b3480156101eb57600080fd5b5061020660048036038101906102019190611295565b61043c565b005b610222600480360381019061021d91906112e9565b610688565b005b34801561023057600080fd5b5061024b600480360381019061024691906112e9565b610a71565b005b34801561025957600080fd5b50610274600480360381019061026f91906112e9565b610bb7565b005b34801561028257600080fd5b5061029d600480360381019061029891906112e9565b610e6b565b005b3480156102ab57600080fd5b506102b46110e1565b6040516102c1919061152b565b60405180910390f35b3480156102d657600080fd5b506102f160048036038101906102ec91906112e9565b611105565b60405161030295949392919061173b565b60405180910390f35b6000600554905090565b60026020528060005260406000206000915090508060000154908060010160009054906101000a900473ffffffffffffffffffffffffffffffffffffffff1690806002018054610364906118af565b80601f0160208091040260200160405190810160405280929190818152602001828054610390906118af565b80156103dd5780601f106103b2576101008083540402835291602001916103dd565b820191906000526020600020905b8154815290600101906020018083116103c057829003601f168201915b5050505050908060030154908060040160009054906101000a900460ff16905085565b600160009054906101000a900473ffffffffffffffffffffffffffffffffffffffff1681565b60055481565b60045481565b6000600454905090565b60008054906101000a900473ffffffffffffffffffffffffffffffffffffffff1673ffffffffffffffffffffffffffffffffffffffff163373ffffffffffffffffffffffffffffffffffffffff1614156104cb576040517f08c379a00000000000000000000000000000000000000000000000000000000081526004016104c290611566565b60405180910390fd5b6000811161050e576040517f08c379a0000000000000000000000000000000000000000000000000000000008152600401610505906116a6565b60405180910390fd5b6004600081548092919061052190611912565b91905055506040518060a0016040528060045481526020013373ffffffffffffffffffffffffffffffffffffffff1681526020018381526020018281526020016000600281111561059b577f4e487b7100000000000000000000000000000000000000000000000000000000600052602160045260246000fd5b8152506002600060045481526020019081526020016000206000820151816000015560208201518160010160006101000a81548173ffffffffffffffffffffffffffffffffffffffff021916908373ffffffffffffffffffffffffffffffffffffffff1602179055506040820151816002019080519060200190610620929190611175565b506060820151816003015560808201518160040160006101000a81548160ff0219169083600281111561067c577f4e487b7100000000000000000000000000000000000000000000000000000000600052602160045260246000fd5b02179055509050505050565b6000600260008381526020019081526020016000209050600060028111156106d9577f4e487b7100000000000000000000000000000000000000000000000000000000600052602160045260246000fd5b8160040160009054906101000a900460ff166002811115610723577f4e487b7100000000000000000000000000000000000000000000000000000000600052602160045260246000fd5b14610763576040517f08c379a000000000000000000000000000000000000000000000000000000000815260040161075a90611686565b60405180910390fd5b8060010160009054906101000a900473ffffffffffffffffffffffffffffffffffffffff1673ffffffffffffffffffffffffffffffffffffffff163373ffffffffffffffffffffffffffffffffffffffff1614156107f6576040517f08c379a00000000000000000000000000000000000000000000000000000000081526004016107ed906115e6565b60405180910390fd5b60008054906101000a900473ffffffffffffffffffffffffffffffffffffffff1673ffffffffffffffffffffffffffffffffffffffff163373ffffffffffffffffffffffffffffffffffffffff161415610885576040517f08c379a000000000000000000000000000000000000000000000000000000000815260040161087c90611586565b60405180910390fd5b806003015434146108cb576040517f08c379a00000000000000000000000000000000000000000000000000000000081526004016108c2906115a6565b60405180910390fd5b600560008154809291906108de90611912565b91905055506040518060a001604052808381526020013373ffffffffffffffffffffffffffffffffffffffff168152602001348152602001600015158152602001600015158152506003600060055481526020019081526020016000206000820151816000015560208201518160010160006101000a81548173ffffffffffffffffffffffffffffffffffffffff021916908373ffffffffffffffffffffffffffffffffffffffff1602179055506040820151816002015560608201518160030160006101000a81548160ff02191690831515021790555060808201518160030160016101000a81548160ff02191690831515021790555090505033600160006101000a81548173ffffffffffffffffffffffffffffffffffffffff021916908373ffffffffffffffffffffffffffffffffffffffff16021790555060018160040160006101000a81548160ff02191690836002811115610a68577f4e487b7100000000000000000000000000000000000000000000000000000000600052602160045260246000fd5b02179055505050565b60036000828152602001908152602001600020600001546002600082815260200190815260200160002060010160009054906101000a900473ffffffffffffffffffffffffffffffffffffffff1673ffffffffffffffffffffffffffffffffffffffff163373ffffffffffffffffffffffffffffffffffffffff1614610b2c576040517f08c379a0000000000000000000000000000000000000000000000000000000008152600401610b23906115c6565b60405180910390fd5b60006003600084815260200190815260200160002090508060030160009054906101000a900460ff1615610b95576040517f08c379a0000000000000000000000000000000000000000000000000000000008152600401610b8c90611666565b60405180910390fd5b60018160030160006101000a81548160ff021916908315150217905550505050565b60008054906101000a900473ffffffffffffffffffffffffffffffffffffffff1673ffffffffffffffffffffffffffffffffffffffff163373ffffffffffffffffffffffffffffffffffffffff1614610c45576040517f08c379a0000000000000000000000000000000000000000000000000000000008152600401610c3c90611546565b60405180910390fd5b60006003600083815260200190815260200160002090508060030160009054906101000a900460ff16610cad576040517f08c379a0000000000000000000000000000000000000000000000000000000008152600401610ca490611646565b60405180910390fd5b8060030160019054906101000a900460ff1615610cff576040517f08c379a0000000000000000000000000000000000000000000000000000000008152600401610cf690611626565b60405180910390fd5b60018160030160016101000a81548160ff02191690831515021790555060006002600083600001548152602001908152602001600020905060008160010160009054906101000a900473ffffffffffffffffffffffffffffffffffffffff1690508260010160009054906101000a900473ffffffffffffffffffffffffffffffffffffffff168260010160006101000a81548173ffffffffffffffffffffffffffffffffffffffff021916908373ffffffffffffffffffffffffffffffffffffffff16021790555060028260040160006101000a81548160ff02191690836002811115610e15577f4e487b7100000000000000000000000000000000000000000000000000000000600052602160045260246000fd5b02179055508073ffffffffffffffffffffffffffffffffffffffff166108fc84600201549081150290604051600060405180830381858888f19350505050158015610e64573d6000803e3d6000fd5b5050505050565b60036000828152602001908152602001600020600001546002600082815260200190815260200160002060010160009054906101000a900473ffffffffffffffffffffffffffffffffffffffff1673ffffffffffffffffffffffffffffffffffffffff163373ffffffffffffffffffffffffffffffffffffffff1614610f26576040517f08c379a0000000000000000000000000000000000000000000000000000000008152600401610f1d906115c6565b60405180910390fd5b60006003600084815260200190815260200160002090508060030160009054906101000a900460ff1615610f8f576040517f08c379a0000000000000000000000000000000000000000000000000000000008152600401610f8690611606565b60405180910390fd5b6000600260008360000154815260200190815260200160002060040160006101000a81548160ff02191690836002811115610ff3577f4e487b7100000000000000000000000000000000000000000000000000000000600052602160045260246000fd5b02179055508060010160009054906101000a900473ffffffffffffffffffffffffffffffffffffffff1673ffffffffffffffffffffffffffffffffffffffff166108fc82600201549081150290604051600060405180830381858888f19350505050158015611066573d6000803e3d6000fd5b50600360008481526020019081526020016000206000808201600090556001820160006101000a81549073ffffffffffffffffffffffffffffffffffffffff021916905560028201600090556003820160006101000a81549060ff02191690556003820160016101000a81549060ff02191690555050505050565b60008054906101000a900473ffffffffffffffffffffffffffffffffffffffff1681565b60036020528060005260406000206000915090508060000154908060010160009054906101000a900473ffffffffffffffffffffffffffffffffffffffff16908060020154908060030160009054906101000a900460ff16908060030160019054906101000a900460ff16905085565b828054611181906118af565b90600052602060002090601f0160209004810192826111a357600085556111ea565b82601f106111bc57805160ff19168380011785556111ea565b828001600101855582156111ea579182015b828111156111e95782518255916020019190600101906111ce565b5b5090506111f791906111fb565b5090565b5b808211156112145760008160009055506001016111fc565b5090565b600061122b611226846117b3565b61178e565b90508281526020810184848401111561124357600080fd5b61124e84828561186d565b509392505050565b600082601f83011261126757600080fd5b8135611277848260208601611218565b91505092915050565b60008135905061128f81611d7e565b92915050565b600080604083850312156112a857600080fd5b600083013567ffffffffffffffff8111156112c257600080fd5b6112ce85828601611256565b92505060206112df85828601611280565b9150509250929050565b6000602082840312156112fb57600080fd5b600061130984828501611280565b91505092915050565b61131b81611800565b82525050565b61132a81611812565b82525050565b6113398161185b565b82525050565b600061134a826117e4565b61135481856117ef565b935061136481856020860161187c565b61136d81611a17565b840191505092915050565b6000611385602b836117ef565b915061139082611a28565b604082019050919050565b60006113a8602a836117ef565b91506113b382611a77565b604082019050919050565b60006113cb6028836117ef565b91506113d682611ac6565b604082019050919050565b60006113ee603b836117ef565b91506113f982611b15565b604082019050919050565b60006114116017836117ef565b915061141c82611b64565b602082019050919050565b60006114346034836117ef565b915061143f82611b8d565b604082019050919050565b6000611457602f836117ef565b915061146282611bdc565b604082019050919050565b600061147a6025836117ef565b915061148582611c2b565b604082019050919050565b600061149d6021836117ef565b91506114a882611c7a565b604082019050919050565b60006114c06021836117ef565b91506114cb82611cc9565b604082019050919050565b60006114e36020836117ef565b91506114ee82611d18565b602082019050919050565b6000611506601d836117ef565b915061151182611d41565b602082019050919050565b61152581611851565b82525050565b60006020820190506115406000830184611312565b92915050565b6000602082019050818103600083015261155f81611378565b9050919050565b6000602082019050818103600083015261157f8161139b565b9050919050565b6000602082019050818103600083015261159f816113be565b9050919050565b600060208201905081810360008301526115bf816113e1565b9050919050565b600060208201905081810360008301526115df81611404565b9050919050565b600060208201905081810360008301526115ff81611427565b9050919050565b6000602082019050818103600083015261161f8161144a565b9050919050565b6000602082019050818103600083015261163f8161146d565b9050919050565b6000602082019050818103600083015261165f81611490565b9050919050565b6000602082019050818103600083015261167f816114b3565b9050919050565b6000602082019050818103600083015261169f816114d6565b9050919050565b600060208201905081810360008301526116bf816114f9565b9050919050565b60006020820190506116db600083018461151c565b92915050565b600060a0820190506116f6600083018861151c565b6117036020830187611312565b8181036040830152611715818661133f565b9050611724606083018561151c565b6117316080830184611330565b9695505050505050565b600060a082019050611750600083018861151c565b61175d6020830187611312565b61176a604083018661151c565b6117776060830185611321565b6117846080830184611321565b9695505050505050565b60006117986117a9565b90506117a482826118e1565b919050565b6000604051905090565b600067ffffffffffffffff8211156117ce576117cd6119e8565b5b6117d782611a17565b9050602081019050919050565b600081519050919050565b600082825260208201905092915050565b600061180b82611831565b9050919050565b60008115159050919050565b600081905061182c82611d6a565b919050565b600073ffffffffffffffffffffffffffffffffffffffff82169050919050565b6000819050919050565b60006118668261181e565b9050919050565b82818337600083830152505050565b60005b8381101561189a57808201518184015260208101905061187f565b838111156118a9576000848401525b50505050565b600060028204905060018216806118c757607f821691505b602082108114156118db576118da6119b9565b5b50919050565b6118ea82611a17565b810181811067ffffffffffffffff82111715611909576119086119e8565b5b80604052505050565b600061191d82611851565b91507fffffffffffffffffffffffffffffffffffffffffffffffffffffffffffffffff8214156119505761194f61195b565b5b600182019050919050565b7f4e487b7100000000000000000000000000000000000000000000000000000000600052601160045260246000fd5b7f4e487b7100000000000000000000000000000000000000000000000000000000600052602160045260246000fd5b7f4e487b7100000000000000000000000000000000000000000000000000000000600052602260045260246000fd5b7f4e487b7100000000000000000000000000000000000000000000000000000000600052604160045260246000fd5b6000601f19601f8301169050919050565b7f536f6c6f20656c206e6f746172696f207075656465207265616c697a6172206560008201527f73746120616363696f6e2e000000000000000000000000000000000000000000602082015250565b7f456c206e6f746172696f206e6f2070756564652072656769737472617220707260008201527f6f70696564616465732e00000000000000000000000000000000000000000000602082015250565b7f456c206e6f746172696f206e6f20707565646520636f6d707261722070726f7060008201527f696564616465732e000000000000000000000000000000000000000000000000602082015250565b7f456c2076616c6f7220656e766961646f206e6f20636f696e6369646520636f6e60008201527f20656c2070726563696f206465206c612070726f7069656461642e0000000000602082015250565b7f4e6f206572657320656c2070726f706965746172696f2e000000000000000000600082015250565b7f456c2070726f706965746172696f206e6f20707565646520636f6d707261722060008201527f73752070726f7069612070726f7069656461642e000000000000000000000000602082015250565b7f4e6f2073652070756564652072656368617a617220756e6120736f6c6963697460008201527f75642079612061636570746164612e0000000000000000000000000000000000602082015250565b7f4c61207472616e73616363696f6e207961206861207369646f2076657269666960008201527f636164612e000000000000000000000000000000000000000000000000000000602082015250565b7f4c6120736f6c696369747564206e6f206861207369646f20616365707461646160008201527f2e00000000000000000000000000000000000000000000000000000000000000602082015250565b7f4c6120736f6c696369747564207961206861207369646f20616365707461646160008201527f2e00000000000000000000000000000000000000000000000000000000000000602082015250565b7f4c612070726f706965646164206e6f206573746120646973706f6e69626c652e600082015250565b7f456c2070726563696f206465626520736572206d61796f72206120302e000000600082015250565b60038110611d7b57611d7a61198a565b5b50565b611d8781611851565b8114611d9257600080fd5b5056fea264697066735822122045ab05aae060cb93d468fb324b7e46314f32685269bfb0315f1f90acb9ae19d564736f6c63430008020033",
  "immutableReferences": {},
  "source": "// SPDX-License-Identifier: MIT\r\npragma solidity ^0.8.0;\r\n\r\ncontract CompraventaInmobiliaria {\r\n    address public notario;\r\n    address public comprador;\r\n\r\n    enum EstadoPropiedad { Disponible, EnProcesoDeVenta, Vendida }\r\n\r\n    struct Propiedad {\r\n        uint id;\r\n        address propietario;\r\n        string descripcion;\r\n        uint precio;\r\n        EstadoPropiedad estado;\r\n    }\r\n\r\n    struct SolicitudCompraventa {\r\n        uint propiedadId;\r\n        address comprador;\r\n        uint oferta;\r\n        bool aceptada;\r\n        bool verificada;\r\n    }\r\n\r\n    mapping(uint => Propiedad) public propiedades;\r\n    mapping(uint => SolicitudCompraventa) public solicitudes;\r\n\r\n    uint public contadorPropiedades;\r\n    uint public contadorSolicitudes;\r\n\r\n    modifier soloPropietario(uint _propiedadId) {\r\n        require(msg.sender == propiedades[_propiedadId].propietario, \"No eres el propietario.\");\r\n        _;\r\n    }\r\n\r\n    modifier soloNotario() {\r\n        require(msg.sender == notario, \"Solo el notario puede realizar esta accion.\");\r\n        _;\r\n    }\r\n\r\n    modifier soloComprador() {\r\n        require(msg.sender == comprador, \"Solo el comprador puede realizar esta accion.\");\r\n        _;\r\n    }\r\n\r\n    constructor(address _notario) {\r\n        require(_notario != msg.sender, \"El notario no puede ser el propietario\");\r\n        notario = _notario;\r\n    }\r\n\r\n    function registrarPropiedad(string memory _descripcion, uint _precio) public {\r\n        require(msg.sender != notario, \"El notario no puede registrar propiedades.\");\r\n        require(_precio > 0, \"El precio debe ser mayor a 0.\");\r\n        \r\n        contadorPropiedades++;\r\n        propiedades[contadorPropiedades] = Propiedad(\r\n            contadorPropiedades,\r\n            msg.sender,\r\n            _descripcion,\r\n            _precio,\r\n            EstadoPropiedad.Disponible\r\n        );\r\n    }\r\n\r\n    function getTotalPropiedades() public view returns (uint) {\r\n        return contadorPropiedades;\r\n    }\r\n\r\n    function getTotalSolicitudes() public view returns (uint) {\r\n    return contadorSolicitudes;\r\n}\r\n\r\n\r\n    function solicitarCompraventa(uint _propiedadId) public payable {\r\n        Propiedad storage propiedad = propiedades[_propiedadId];\r\n        require(propiedad.estado == EstadoPropiedad.Disponible, \"La propiedad no esta disponible.\");\r\n        require(msg.sender != propiedad.propietario, \"El propietario no puede comprar su propia propiedad.\");\r\n        require(msg.sender != notario, \"El notario no puede comprar propiedades.\");\r\n        require(msg.value == propiedad.precio, \"El valor enviado no coincide con el precio de la propiedad.\");\r\n\r\n        contadorSolicitudes++;\r\n        solicitudes[contadorSolicitudes] = SolicitudCompraventa(_propiedadId, msg.sender, msg.value, false, false);\r\n        comprador = msg.sender;\r\n\r\n        propiedad.estado = EstadoPropiedad.EnProcesoDeVenta;\r\n    }\r\n\r\n    function aceptarSolicitud(uint _solicitudId) public soloPropietario(solicitudes[_solicitudId].propiedadId) {\r\n        SolicitudCompraventa storage solicitud = solicitudes[_solicitudId];\r\n        require(!solicitud.aceptada, \"La solicitud ya ha sido aceptada.\");\r\n\r\n        solicitud.aceptada = true;\r\n    }\r\n\r\n    function rechazarSolicitud(uint _solicitudId) public soloPropietario(solicitudes[_solicitudId].propiedadId) {\r\n        SolicitudCompraventa storage solicitud = solicitudes[_solicitudId];\r\n        require(!solicitud.aceptada, \"No se puede rechazar una solicitud ya aceptada.\");\r\n\r\n        propiedades[solicitud.propiedadId].estado = EstadoPropiedad.Disponible;\r\n        payable(solicitud.comprador).transfer(solicitud.oferta);\r\n        delete solicitudes[_solicitudId];\r\n    }\r\n\r\n    function verificarTransaccion(uint _solicitudId) public soloNotario {\r\n        SolicitudCompraventa storage solicitud = solicitudes[_solicitudId];\r\n        require(solicitud.aceptada, \"La solicitud no ha sido aceptada.\");\r\n        require(!solicitud.verificada, \"La transaccion ya ha sido verificada.\");\r\n\r\n        solicitud.verificada = true;\r\n        Propiedad storage propiedad = propiedades[solicitud.propiedadId];\r\n\r\n        address propietarioAnterior = propiedad.propietario;\r\n        propiedad.propietario = solicitud.comprador;\r\n        propiedad.estado = EstadoPropiedad.Vendida;\r\n\r\n        payable(propietarioAnterior).transfer(solicitud.oferta);\r\n    }\r\n}\r\n",
  "sourcePath": "C:\\Users\\exeac\\source\\repos\\prototipo-compraventa\\contracts\\CompraventaInmobiliaria.sol",
  "compiler": {
    "name": "solc",
    "version": "0.8.2+commit.661d1103.Emscripten.clang"
  },
  "schemaVersion": "3.4.16",
  "updatedAt": "2025-03-08T13:50:43.443Z",
  "networkType": "ethereum",
  "devdoc": {
    "kind": "dev",
    "methods": {},
    "version": 1
  },
  "userdoc": {
    "kind": "user",
    "methods": {},
    "version": 1
  }
}