{
  "contractName": "CompraventaInmobiliaria",
  "abi": [
    {
      "inputs": [],
      "stateMutability": "nonpayable",
      "type": "constructor"
    },
    {
      "inputs": [],
      "name": "contadorPropiedades",
      "outputs": [
        {
          "internalType": "uint256",
          "name": "",
          "type": "uint256"
        }
      ],
      "stateMutability": "view",
      "type": "function",
      "constant": true
    },
    {
      "inputs": [],
      "name": "contadorSolicitudes",
      "outputs": [
        {
          "internalType": "uint256",
          "name": "",
          "type": "uint256"
        }
      ],
      "stateMutability": "view",
      "type": "function",
      "constant": true
    },
    {
      "inputs": [],
      "name": "notario",
      "outputs": [
        {
          "internalType": "address",
          "name": "",
          "type": "address"
        }
      ],
      "stateMutability": "view",
      "type": "function",
      "constant": true
    },
    {
      "inputs": [
        {
          "internalType": "uint256",
          "name": "",
          "type": "uint256"
        }
      ],
      "name": "propiedades",
      "outputs": [
        {
          "internalType": "uint256",
          "name": "id",
          "type": "uint256"
        },
        {
          "internalType": "address",
          "name": "propietario",
          "type": "address"
        },
        {
          "internalType": "string",
          "name": "descripcion",
          "type": "string"
        },
        {
          "internalType": "uint256",
          "name": "precio",
          "type": "uint256"
        },
        {
          "internalType": "enum CompraventaInmobiliaria.EstadoPropiedad",
          "name": "estado",
          "type": "uint8"
        }
      ],
      "stateMutability": "view",
      "type": "function",
      "constant": true
    },
    {
      "inputs": [
        {
          "internalType": "uint256",
          "name": "",
          "type": "uint256"
        }
      ],
      "name": "solicitudes",
      "outputs": [
        {
          "internalType": "uint256",
          "name": "propiedadId",
          "type": "uint256"
        },
        {
          "internalType": "address",
          "name": "comprador",
          "type": "address"
        },
        {
          "internalType": "uint256",
          "name": "oferta",
          "type": "uint256"
        },
        {
          "internalType": "bool",
          "name": "aceptada",
          "type": "bool"
        },
        {
          "internalType": "bool",
          "name": "verificada",
          "type": "bool"
        }
      ],
      "stateMutability": "view",
      "type": "function",
      "constant": true
    },
    {
      "inputs": [
        {
          "internalType": "string",
          "name": "_descripcion",
          "type": "string"
        },
        {
          "internalType": "uint256",
          "name": "_precio",
          "type": "uint256"
        }
      ],
      "name": "registrarPropiedad",
      "outputs": [],
      "stateMutability": "nonpayable",
      "type": "function"
    },
    {
      "inputs": [
        {
          "internalType": "uint256",
          "name": "_propiedadId",
          "type": "uint256"
        }
      ],
      "name": "solicitarCompraventa",
      "outputs": [],
      "stateMutability": "payable",
      "type": "function",
      "payable": true
    },
    {
      "inputs": [
        {
          "internalType": "uint256",
          "name": "_solicitudId",
          "type": "uint256"
        }
      ],
      "name": "aceptarSolicitud",
      "outputs": [],
      "stateMutability": "nonpayable",
      "type": "function"
    },
    {
      "inputs": [
        {
          "internalType": "uint256",
          "name": "_solicitudId",
          "type": "uint256"
        }
      ],
      "name": "rechazarSolicitud",
      "outputs": [],
      "stateMutability": "nonpayable",
      "type": "function"
    },
    {
      "inputs": [
        {
          "internalType": "uint256",
          "name": "_solicitudId",
          "type": "uint256"
        }
      ],
      "name": "verificarTransaccion",
      "outputs": [],
      "stateMutability": "nonpayable",
      "type": "function"
    }
  ],
  "bytecode": "0x608060405234801561001057600080fd5b50336000806101000a81548173ffffffffffffffffffffffffffffffffffffffff021916908373ffffffffffffffffffffffffffffffffffffffff16021790555061195d806100606000396000f3fe6080604052600436106100915760003560e01c8063a03939fc11610059578063a03939fc14610172578063a2e51b001461019b578063c1123deb146101c4578063d41f70dd146101ed578063fd91c7d41461021857610091565b80630bb5643b1461009657806315c7dd7a146100d757806350c257f41461010257806384926dfa1461012d5780639d6e063414610156575b600080fd5b3480156100a257600080fd5b506100bd60048036038101906100b8919061100b565b610259565b6040516100ce95949392919061133a565b60405180910390f35b3480156100e357600080fd5b506100ec610344565b6040516100f9919061131f565b60405180910390f35b34801561010e57600080fd5b5061011761034a565b604051610124919061131f565b60405180910390f35b34801561013957600080fd5b50610154600480360381019061014f9190610fb7565b610350565b005b610170600480360381019061016b919061100b565b61050d565b005b34801561017e57600080fd5b506101996004803603810190610194919061100b565b610793565b005b3480156101a757600080fd5b506101c260048036038101906101bd919061100b565b6108d9565b005b3480156101d057600080fd5b506101eb60048036038101906101e6919061100b565b610b8d565b005b3480156101f957600080fd5b50610202610e03565b60405161020f91906111e4565b60405180910390f35b34801561022457600080fd5b5061023f600480360381019061023a919061100b565b610e27565b604051610250959493929190611394565b60405180910390f35b60016020528060005260406000206000915090508060000154908060010160009054906101000a900473ffffffffffffffffffffffffffffffffffffffff16908060020180546102a890611508565b80601f01602080910402602001604051908101604052809291908181526020018280546102d490611508565b80156103215780601f106102f657610100808354040283529160200191610321565b820191906000526020600020905b81548152906001019060200180831161030457829003601f168201915b5050505050908060030154908060040160009054906101000a900460ff16905085565b60045481565b60035481565b60008111610393576040517f08c379a000000000000000000000000000000000000000000000000000000000815260040161038a906112ff565b60405180910390fd5b600360008154809291906103a69061156b565b91905055506040518060a0016040528060035481526020013373ffffffffffffffffffffffffffffffffffffffff16815260200183815260200182815260200160006002811115610420577f4e487b7100000000000000000000000000000000000000000000000000000000600052602160045260246000fd5b8152506001600060035481526020019081526020016000206000820151816000015560208201518160010160006101000a81548173ffffffffffffffffffffffffffffffffffffffff021916908373ffffffffffffffffffffffffffffffffffffffff16021790555060408201518160020190805190602001906104a5929190610e97565b506060820151816003015560808201518160040160006101000a81548160ff02191690836002811115610501577f4e487b7100000000000000000000000000000000000000000000000000000000600052602160045260246000fd5b02179055509050505050565b60006001600083815260200190815260200160002090506000600281111561055e577f4e487b7100000000000000000000000000000000000000000000000000000000600052602160045260246000fd5b8160040160009054906101000a900460ff1660028111156105a8577f4e487b7100000000000000000000000000000000000000000000000000000000600052602160045260246000fd5b146105e8576040517f08c379a00000000000000000000000000000000000000000000000000000000081526004016105df906112df565b60405180910390fd5b8060030154341461062e576040517f08c379a00000000000000000000000000000000000000000000000000000000081526004016106259061121f565b60405180910390fd5b600460008154809291906106419061156b565b91905055506040518060a001604052808381526020013373ffffffffffffffffffffffffffffffffffffffff168152602001348152602001600015158152602001600015158152506002600060045481526020019081526020016000206000820151816000015560208201518160010160006101000a81548173ffffffffffffffffffffffffffffffffffffffff021916908373ffffffffffffffffffffffffffffffffffffffff1602179055506040820151816002015560608201518160030160006101000a81548160ff02191690831515021790555060808201518160030160016101000a81548160ff02191690831515021790555090505060018160040160006101000a81548160ff0219169083600281111561078a577f4e487b7100000000000000000000000000000000000000000000000000000000600052602160045260246000fd5b02179055505050565b60026000828152602001908152602001600020600001546001600082815260200190815260200160002060010160009054906101000a900473ffffffffffffffffffffffffffffffffffffffff1673ffffffffffffffffffffffffffffffffffffffff163373ffffffffffffffffffffffffffffffffffffffff161461084e576040517f08c379a00000000000000000000000000000000000000000000000000000000081526004016108459061123f565b60405180910390fd5b60006002600084815260200190815260200160002090508060030160009054906101000a900460ff16156108b7576040517f08c379a00000000000000000000000000000000000000000000000000000000081526004016108ae906112bf565b60405180910390fd5b60018160030160006101000a81548160ff021916908315150217905550505050565b60008054906101000a900473ffffffffffffffffffffffffffffffffffffffff1673ffffffffffffffffffffffffffffffffffffffff163373ffffffffffffffffffffffffffffffffffffffff1614610967576040517f08c379a000000000000000000000000000000000000000000000000000000000815260040161095e906111ff565b60405180910390fd5b60006002600083815260200190815260200160002090508060030160009054906101000a900460ff166109cf576040517f08c379a00000000000000000000000000000000000000000000000000000000081526004016109c69061129f565b60405180910390fd5b8060030160019054906101000a900460ff1615610a21576040517f08c379a0000000000000000000000000000000000000000000000000000000008152600401610a189061127f565b60405180910390fd5b60018160030160016101000a81548160ff02191690831515021790555060006001600083600001548152602001908152602001600020905060008160010160009054906101000a900473ffffffffffffffffffffffffffffffffffffffff1690508260010160009054906101000a900473ffffffffffffffffffffffffffffffffffffffff168260010160006101000a81548173ffffffffffffffffffffffffffffffffffffffff021916908373ffffffffffffffffffffffffffffffffffffffff16021790555060028260040160006101000a81548160ff02191690836002811115610b37577f4e487b7100000000000000000000000000000000000000000000000000000000600052602160045260246000fd5b02179055508073ffffffffffffffffffffffffffffffffffffffff166108fc84600201549081150290604051600060405180830381858888f19350505050158015610b86573d6000803e3d6000fd5b5050505050565b60026000828152602001908152602001600020600001546001600082815260200190815260200160002060010160009054906101000a900473ffffffffffffffffffffffffffffffffffffffff1673ffffffffffffffffffffffffffffffffffffffff163373ffffffffffffffffffffffffffffffffffffffff1614610c48576040517f08c379a0000000000000000000000000000000000000000000000000000000008152600401610c3f9061123f565b60405180910390fd5b60006002600084815260200190815260200160002090508060030160009054906101000a900460ff1615610cb1576040517f08c379a0000000000000000000000000000000000000000000000000000000008152600401610ca89061125f565b60405180910390fd5b6000600160008360000154815260200190815260200160002060040160006101000a81548160ff02191690836002811115610d15577f4e487b7100000000000000000000000000000000000000000000000000000000600052602160045260246000fd5b02179055508060010160009054906101000a900473ffffffffffffffffffffffffffffffffffffffff1673ffffffffffffffffffffffffffffffffffffffff166108fc82600201549081150290604051600060405180830381858888f19350505050158015610d88573d6000803e3d6000fd5b50600260008481526020019081526020016000206000808201600090556001820160006101000a81549073ffffffffffffffffffffffffffffffffffffffff021916905560028201600090556003820160006101000a81549060ff02191690556003820160016101000a81549060ff02191690555050505050565b60008054906101000a900473ffffffffffffffffffffffffffffffffffffffff1681565b60026020528060005260406000206000915090508060000154908060010160009054906101000a900473ffffffffffffffffffffffffffffffffffffffff16908060020154908060030160009054906101000a900460ff16908060030160019054906101000a900460ff16905085565b828054610ea390611508565b90600052602060002090601f016020900481019282610ec55760008555610f0c565b82601f10610ede57805160ff1916838001178555610f0c565b82800160010185558215610f0c579182015b82811115610f0b578251825591602001919060010190610ef0565b5b509050610f199190610f1d565b5090565b5b80821115610f36576000816000905550600101610f1e565b5090565b6000610f4d610f488461140c565b6113e7565b905082815260208101848484011115610f6557600080fd5b610f708482856114c6565b509392505050565b600082601f830112610f8957600080fd5b8135610f99848260208601610f3a565b91505092915050565b600081359050610fb181611910565b92915050565b60008060408385031215610fca57600080fd5b600083013567ffffffffffffffff811115610fe457600080fd5b610ff085828601610f78565b925050602061100185828601610fa2565b9150509250929050565b60006020828403121561101d57600080fd5b600061102b84828501610fa2565b91505092915050565b61103d81611459565b82525050565b61104c8161146b565b82525050565b61105b816114b4565b82525050565b600061106c8261143d565b6110768185611448565b93506110868185602086016114d5565b61108f81611670565b840191505092915050565b60006110a7602b83611448565b91506110b282611681565b604082019050919050565b60006110ca603b83611448565b91506110d5826116d0565b604082019050919050565b60006110ed601783611448565b91506110f88261171f565b602082019050919050565b6000611110602f83611448565b915061111b82611748565b604082019050919050565b6000611133602583611448565b915061113e82611797565b604082019050919050565b6000611156602183611448565b9150611161826117e6565b604082019050919050565b6000611179602183611448565b915061118482611835565b604082019050919050565b600061119c602083611448565b91506111a782611884565b602082019050919050565b60006111bf602283611448565b91506111ca826118ad565b604082019050919050565b6111de816114aa565b82525050565b60006020820190506111f96000830184611034565b92915050565b600060208201905081810360008301526112188161109a565b9050919050565b60006020820190508181036000830152611238816110bd565b9050919050565b60006020820190508181036000830152611258816110e0565b9050919050565b6000602082019050818103600083015261127881611103565b9050919050565b6000602082019050818103600083015261129881611126565b9050919050565b600060208201905081810360008301526112b881611149565b9050919050565b600060208201905081810360008301526112d88161116c565b9050919050565b600060208201905081810360008301526112f88161118f565b9050919050565b60006020820190508181036000830152611318816111b2565b9050919050565b600060208201905061133460008301846111d5565b92915050565b600060a08201905061134f60008301886111d5565b61135c6020830187611034565b818103604083015261136e8186611061565b905061137d60608301856111d5565b61138a6080830184611052565b9695505050505050565b600060a0820190506113a960008301886111d5565b6113b66020830187611034565b6113c360408301866111d5565b6113d06060830185611043565b6113dd6080830184611043565b9695505050505050565b60006113f1611402565b90506113fd828261153a565b919050565b6000604051905090565b600067ffffffffffffffff82111561142757611426611641565b5b61143082611670565b9050602081019050919050565b600081519050919050565b600082825260208201905092915050565b60006114648261148a565b9050919050565b60008115159050919050565b6000819050611485826118fc565b919050565b600073ffffffffffffffffffffffffffffffffffffffff82169050919050565b6000819050919050565b60006114bf82611477565b9050919050565b82818337600083830152505050565b60005b838110156114f35780820151818401526020810190506114d8565b83811115611502576000848401525b50505050565b6000600282049050600182168061152057607f821691505b6020821081141561153457611533611612565b5b50919050565b61154382611670565b810181811067ffffffffffffffff8211171561156257611561611641565b5b80604052505050565b6000611576826114aa565b91507fffffffffffffffffffffffffffffffffffffffffffffffffffffffffffffffff8214156115a9576115a86115b4565b5b600182019050919050565b7f4e487b7100000000000000000000000000000000000000000000000000000000600052601160045260246000fd5b7f4e487b7100000000000000000000000000000000000000000000000000000000600052602160045260246000fd5b7f4e487b7100000000000000000000000000000000000000000000000000000000600052602260045260246000fd5b7f4e487b7100000000000000000000000000000000000000000000000000000000600052604160045260246000fd5b6000601f19601f8301169050919050565b7f536f6c6f20656c206e6f746172696f207075656465207265616c697a6172206560008201527f73746120616363696f6e2e000000000000000000000000000000000000000000602082015250565b7f456c2076616c6f7220656e766961646f206e6f20636f696e6369646520636f6e60008201527f20656c2070726563696f206465206c612070726f7069656461642e0000000000602082015250565b7f4e6f206572657320656c2070726f706965746172696f2e000000000000000000600082015250565b7f4e6f2073652070756564652072656368617a617220756e6120736f6c6963697460008201527f75642079612061636570746164612e0000000000000000000000000000000000602082015250565b7f4c61207472616e73616363696f6e207961206861207369646f2076657269666960008201527f636164612e000000000000000000000000000000000000000000000000000000602082015250565b7f4c6120736f6c696369747564206e6f206861207369646f20616365707461646160008201527f2e00000000000000000000000000000000000000000000000000000000000000602082015250565b7f4c6120736f6c696369747564207961206861207369646f20616365707461646160008201527f2e00000000000000000000000000000000000000000000000000000000000000602082015250565b7f4c612070726f706965646164206e6f206573746120646973706f6e69626c652e600082015250565b7f456c2070726563696f206465626520736572206d61796f72207175652063657260008201527f6f2e000000000000000000000000000000000000000000000000000000000000602082015250565b6003811061190d5761190c6115e3565b5b50565b611919816114aa565b811461192457600080fd5b5056fea2646970667358221220cead631fa370a3812f57f4a640200747fece60bc9a413fe544c5c885f87bcfec64736f6c63430008020033",
  "immutableReferences": {},
  "source": "// SPDX-License-Identifier: MIT\r\npragma solidity ^0.8.0;\r\n\r\ncontract CompraventaInmobiliaria {\r\n    address public notario;\r\n\r\n    constructor() {\r\n        notario = msg.sender;\r\n    }\r\n\r\n    enum EstadoPropiedad { Disponible, EnProcesoDeVenta, Vendida }\r\n\r\n    struct Propiedad {\r\n        uint id;\r\n        address propietario;\r\n        string descripcion;\r\n        uint precio;\r\n        EstadoPropiedad estado;\r\n    }\r\n\r\n    struct SolicitudCompraventa {\r\n        uint propiedadId;\r\n        address comprador;\r\n        uint oferta;\r\n        bool aceptada;\r\n        bool verificada;\r\n    }\r\n\r\n    mapping(uint => Propiedad) public propiedades;\r\n    mapping(uint => SolicitudCompraventa) public solicitudes;\r\n\r\n    uint public contadorPropiedades;\r\n    uint public contadorSolicitudes;\r\n\r\n    modifier soloPropietario(uint _propiedadId) {\r\n        require(msg.sender == propiedades[_propiedadId].propietario, \"No eres el propietario.\");\r\n        _;\r\n    }\r\n\r\n    modifier soloNotario() {\r\n        require(msg.sender == notario, \"Solo el notario puede realizar esta accion.\");\r\n        _;\r\n    }\r\n\r\n    function registrarPropiedad(string memory _descripcion, uint _precio) public {\r\n        require(_precio > 0, \"El precio debe ser mayor que cero.\");\r\n        contadorPropiedades++;\r\n        propiedades[contadorPropiedades] = Propiedad(contadorPropiedades, msg.sender, _descripcion, _precio, EstadoPropiedad.Disponible);\r\n    }\r\n\r\n    function solicitarCompraventa(uint _propiedadId) public payable {\r\n        Propiedad storage propiedad = propiedades[_propiedadId];\r\n        require(propiedad.estado == EstadoPropiedad.Disponible, \"La propiedad no esta disponible.\");\r\n        require(msg.value == propiedad.precio, \"El valor enviado no coincide con el precio de la propiedad.\");\r\n\r\n        contadorSolicitudes++;\r\n        solicitudes[contadorSolicitudes] = SolicitudCompraventa(_propiedadId, msg.sender, msg.value, false, false);\r\n\r\n        propiedad.estado = EstadoPropiedad.EnProcesoDeVenta;\r\n    }\r\n\r\n    function aceptarSolicitud(uint _solicitudId) public soloPropietario(solicitudes[_solicitudId].propiedadId) {\r\n        SolicitudCompraventa storage solicitud = solicitudes[_solicitudId];\r\n        require(!solicitud.aceptada, \"La solicitud ya ha sido aceptada.\");\r\n\r\n        solicitud.aceptada = true;\r\n    }\r\n\r\n    function rechazarSolicitud(uint _solicitudId) public soloPropietario(solicitudes[_solicitudId].propiedadId) {\r\n        SolicitudCompraventa storage solicitud = solicitudes[_solicitudId];\r\n        require(!solicitud.aceptada, \"No se puede rechazar una solicitud ya aceptada.\");\r\n\r\n        propiedades[solicitud.propiedadId].estado = EstadoPropiedad.Disponible;\r\n        payable(solicitud.comprador).transfer(solicitud.oferta);\r\n\r\n        delete solicitudes[_solicitudId];\r\n    }\r\n\r\n    function verificarTransaccion(uint _solicitudId) public soloNotario {\r\n        SolicitudCompraventa storage solicitud = solicitudes[_solicitudId];\r\n        require(solicitud.aceptada, \"La solicitud no ha sido aceptada.\");\r\n        require(!solicitud.verificada, \"La transaccion ya ha sido verificada.\");\r\n\r\n        solicitud.verificada = true;\r\n        Propiedad storage propiedad = propiedades[solicitud.propiedadId];\r\n\r\n        address propietarioAnterior = propiedad.propietario;\r\n        propiedad.propietario = solicitud.comprador;\r\n        propiedad.estado = EstadoPropiedad.Vendida;\r\n\r\n        payable(propietarioAnterior).transfer(solicitud.oferta);\r\n    }\r\n} \r\n",
  "sourcePath": "C:\\Users\\exeac\\source\\repos\\prototipo-compraventa\\contracts\\CompraventaInmobiliaria.sol",
  "compiler": {
    "name": "solc",
    "version": "0.8.2+commit.661d1103.Emscripten.clang"
  },
  "schemaVersion": "3.4.16",
  "updatedAt": "2025-02-06T02:59:58.554Z",
  "networkType": "ethereum",
  "devdoc": {
    "kind": "dev",
    "methods": {},
    "version": 1
  },
  "userdoc": {
    "kind": "user",
    "methods": {},
    "version": 1
  }
}