{
  "contractName": "CompraventaInmobiliaria",
  "abi": [
    {
      "inputs": [
        {
          "internalType": "address",
          "name": "_notario",
          "type": "address"
        }
      ],
      "stateMutability": "nonpayable",
      "type": "constructor"
    },
    {
      "inputs": [],
      "name": "comprador",
      "outputs": [
        {
          "internalType": "address",
          "name": "",
          "type": "address"
        }
      ],
      "stateMutability": "view",
      "type": "function",
      "constant": true
    },
    {
      "inputs": [],
      "name": "contadorPropiedades",
      "outputs": [
        {
          "internalType": "uint256",
          "name": "",
          "type": "uint256"
        }
      ],
      "stateMutability": "view",
      "type": "function",
      "constant": true
    },
    {
      "inputs": [],
      "name": "contadorSolicitudes",
      "outputs": [
        {
          "internalType": "uint256",
          "name": "",
          "type": "uint256"
        }
      ],
      "stateMutability": "view",
      "type": "function",
      "constant": true
    },
    {
      "inputs": [],
      "name": "notario",
      "outputs": [
        {
          "internalType": "address",
          "name": "",
          "type": "address"
        }
      ],
      "stateMutability": "view",
      "type": "function",
      "constant": true
    },
    {
      "inputs": [
        {
          "internalType": "uint256",
          "name": "",
          "type": "uint256"
        }
      ],
      "name": "propiedades",
      "outputs": [
        {
          "internalType": "uint256",
          "name": "id",
          "type": "uint256"
        },
        {
          "internalType": "address",
          "name": "propietario",
          "type": "address"
        },
        {
          "internalType": "string",
          "name": "descripcion",
          "type": "string"
        },
        {
          "internalType": "uint256",
          "name": "precio",
          "type": "uint256"
        },
        {
          "internalType": "enum CompraventaInmobiliaria.EstadoPropiedad",
          "name": "estado",
          "type": "uint8"
        }
      ],
      "stateMutability": "view",
      "type": "function",
      "constant": true
    },
    {
      "inputs": [],
      "name": "propietario",
      "outputs": [
        {
          "internalType": "address",
          "name": "",
          "type": "address"
        }
      ],
      "stateMutability": "view",
      "type": "function",
      "constant": true
    },
    {
      "inputs": [
        {
          "internalType": "uint256",
          "name": "",
          "type": "uint256"
        }
      ],
      "name": "solicitudes",
      "outputs": [
        {
          "internalType": "uint256",
          "name": "propiedadId",
          "type": "uint256"
        },
        {
          "internalType": "address",
          "name": "comprador",
          "type": "address"
        },
        {
          "internalType": "uint256",
          "name": "oferta",
          "type": "uint256"
        },
        {
          "internalType": "bool",
          "name": "aceptada",
          "type": "bool"
        },
        {
          "internalType": "bool",
          "name": "verificada",
          "type": "bool"
        }
      ],
      "stateMutability": "view",
      "type": "function",
      "constant": true
    },
    {
      "inputs": [
        {
          "internalType": "string",
          "name": "_descripcion",
          "type": "string"
        },
        {
          "internalType": "uint256",
          "name": "_precio",
          "type": "uint256"
        }
      ],
      "name": "registrarPropiedad",
      "outputs": [],
      "stateMutability": "nonpayable",
      "type": "function"
    },
    {
      "inputs": [
        {
          "internalType": "uint256",
          "name": "_propiedadId",
          "type": "uint256"
        }
      ],
      "name": "solicitarCompraventa",
      "outputs": [],
      "stateMutability": "payable",
      "type": "function",
      "payable": true
    },
    {
      "inputs": [
        {
          "internalType": "uint256",
          "name": "_solicitudId",
          "type": "uint256"
        }
      ],
      "name": "aceptarSolicitud",
      "outputs": [],
      "stateMutability": "nonpayable",
      "type": "function"
    },
    {
      "inputs": [
        {
          "internalType": "uint256",
          "name": "_solicitudId",
          "type": "uint256"
        }
      ],
      "name": "rechazarSolicitud",
      "outputs": [],
      "stateMutability": "nonpayable",
      "type": "function"
    },
    {
      "inputs": [
        {
          "internalType": "uint256",
          "name": "_solicitudId",
          "type": "uint256"
        }
      ],
      "name": "verificarTransaccion",
      "outputs": [],
      "stateMutability": "nonpayable",
      "type": "function"
    }
  ],
  "bytecode": "0x60806040523480156200001157600080fd5b5060405162001fd138038062001fd1833981810160405281019062000037919062000107565b3373ffffffffffffffffffffffffffffffffffffffff168173ffffffffffffffffffffffffffffffffffffffff161415620000a9576040517f08c379a0000000000000000000000000000000000000000000000000000000008152600401620000a0906200015a565b60405180910390fd5b806000806101000a81548173ffffffffffffffffffffffffffffffffffffffff021916908373ffffffffffffffffffffffffffffffffffffffff160217905550506200022a565b600081519050620001018162000210565b92915050565b6000602082840312156200011a57600080fd5b60006200012a84828501620000f0565b91505092915050565b6000620001426026836200017c565b91506200014f82620001c1565b604082019050919050565b60006020820190508181036000830152620001758162000133565b9050919050565b600082825260208201905092915050565b60006200019a82620001a1565b9050919050565b600073ffffffffffffffffffffffffffffffffffffffff82169050919050565b7f456c206e6f746172696f206e6f2070756564652073657220656c2070726f706960008201527f65746172696f0000000000000000000000000000000000000000000000000000602082015250565b6200021b816200018d565b81146200022757600080fd5b50565b611d97806200023a6000396000f3fe6080604052600436106100a75760003560e01c80639d6e0634116100645780639d6e0634146101c2578063a03939fc146101de578063a2e51b0014610207578063c1123deb14610230578063d41f70dd14610259578063fd91c7d414610284576100a7565b80630bb5643b146100ac5780630f50b6e7146100ed57806315c7dd7a146101185780633c4f81cd1461014357806350c257f41461016e57806384926dfa14610199575b600080fd5b3480156100b857600080fd5b506100d360048036038101906100ce91906112b5565b6102c5565b6040516100e49594939291906116ad565b60405180910390f35b3480156100f957600080fd5b506101026103b0565b60405161010f91906114f7565b60405180910390f35b34801561012457600080fd5b5061012d6103d6565b60405161013a9190611692565b60405180910390f35b34801561014f57600080fd5b506101586103dc565b60405161016591906114f7565b60405180910390f35b34801561017a57600080fd5b50610183610402565b6040516101909190611692565b60405180910390f35b3480156101a557600080fd5b506101c060048036038101906101bb9190611261565b610408565b005b6101dc60048036038101906101d791906112b5565b610654565b005b3480156101ea57600080fd5b50610205600480360381019061020091906112b5565b610a3d565b005b34801561021357600080fd5b5061022e600480360381019061022991906112b5565b610b83565b005b34801561023c57600080fd5b50610257600480360381019061025291906112b5565b610e37565b005b34801561026557600080fd5b5061026e6110ad565b60405161027b91906114f7565b60405180910390f35b34801561029057600080fd5b506102ab60048036038101906102a691906112b5565b6110d1565b6040516102bc959493929190611707565b60405180910390f35b60036020528060005260406000206000915090508060000154908060010160009054906101000a900473ffffffffffffffffffffffffffffffffffffffff16908060020180546103149061187b565b80601f01602080910402602001604051908101604052809291908181526020018280546103409061187b565b801561038d5780601f106103625761010080835404028352916020019161038d565b820191906000526020600020905b81548152906001019060200180831161037057829003601f168201915b5050505050908060030154908060040160009054906101000a900460ff16905085565b600260009054906101000a900473ffffffffffffffffffffffffffffffffffffffff1681565b60065481565b600160009054906101000a900473ffffffffffffffffffffffffffffffffffffffff1681565b60055481565b60008054906101000a900473ffffffffffffffffffffffffffffffffffffffff1673ffffffffffffffffffffffffffffffffffffffff163373ffffffffffffffffffffffffffffffffffffffff161415610497576040517f08c379a000000000000000000000000000000000000000000000000000000000815260040161048e90611532565b60405180910390fd5b600081116104da576040517f08c379a00000000000000000000000000000000000000000000000000000000081526004016104d190611672565b60405180910390fd5b600560008154809291906104ed906118de565b91905055506040518060a0016040528060055481526020013373ffffffffffffffffffffffffffffffffffffffff16815260200183815260200182815260200160006002811115610567577f4e487b7100000000000000000000000000000000000000000000000000000000600052602160045260246000fd5b8152506003600060055481526020019081526020016000206000820151816000015560208201518160010160006101000a81548173ffffffffffffffffffffffffffffffffffffffff021916908373ffffffffffffffffffffffffffffffffffffffff16021790555060408201518160020190805190602001906105ec929190611141565b506060820151816003015560808201518160040160006101000a81548160ff02191690836002811115610648577f4e487b7100000000000000000000000000000000000000000000000000000000600052602160045260246000fd5b02179055509050505050565b6000600360008381526020019081526020016000209050600060028111156106a5577f4e487b7100000000000000000000000000000000000000000000000000000000600052602160045260246000fd5b8160040160009054906101000a900460ff1660028111156106ef577f4e487b7100000000000000000000000000000000000000000000000000000000600052602160045260246000fd5b1461072f576040517f08c379a000000000000000000000000000000000000000000000000000000000815260040161072690611652565b60405180910390fd5b8060010160009054906101000a900473ffffffffffffffffffffffffffffffffffffffff1673ffffffffffffffffffffffffffffffffffffffff163373ffffffffffffffffffffffffffffffffffffffff1614156107c2576040517f08c379a00000000000000000000000000000000000000000000000000000000081526004016107b9906115b2565b60405180910390fd5b60008054906101000a900473ffffffffffffffffffffffffffffffffffffffff1673ffffffffffffffffffffffffffffffffffffffff163373ffffffffffffffffffffffffffffffffffffffff161415610851576040517f08c379a000000000000000000000000000000000000000000000000000000000815260040161084890611552565b60405180910390fd5b80600301543414610897576040517f08c379a000000000000000000000000000000000000000000000000000000000815260040161088e90611572565b60405180910390fd5b600660008154809291906108aa906118de565b91905055506040518060a001604052808381526020013373ffffffffffffffffffffffffffffffffffffffff168152602001348152602001600015158152602001600015158152506004600060065481526020019081526020016000206000820151816000015560208201518160010160006101000a81548173ffffffffffffffffffffffffffffffffffffffff021916908373ffffffffffffffffffffffffffffffffffffffff1602179055506040820151816002015560608201518160030160006101000a81548160ff02191690831515021790555060808201518160030160016101000a81548160ff02191690831515021790555090505033600260006101000a81548173ffffffffffffffffffffffffffffffffffffffff021916908373ffffffffffffffffffffffffffffffffffffffff16021790555060018160040160006101000a81548160ff02191690836002811115610a34577f4e487b7100000000000000000000000000000000000000000000000000000000600052602160045260246000fd5b02179055505050565b60046000828152602001908152602001600020600001546003600082815260200190815260200160002060010160009054906101000a900473ffffffffffffffffffffffffffffffffffffffff1673ffffffffffffffffffffffffffffffffffffffff163373ffffffffffffffffffffffffffffffffffffffff1614610af8576040517f08c379a0000000000000000000000000000000000000000000000000000000008152600401610aef90611592565b60405180910390fd5b60006004600084815260200190815260200160002090508060030160009054906101000a900460ff1615610b61576040517f08c379a0000000000000000000000000000000000000000000000000000000008152600401610b5890611632565b60405180910390fd5b60018160030160006101000a81548160ff021916908315150217905550505050565b60008054906101000a900473ffffffffffffffffffffffffffffffffffffffff1673ffffffffffffffffffffffffffffffffffffffff163373ffffffffffffffffffffffffffffffffffffffff1614610c11576040517f08c379a0000000000000000000000000000000000000000000000000000000008152600401610c0890611512565b60405180910390fd5b60006004600083815260200190815260200160002090508060030160009054906101000a900460ff16610c79576040517f08c379a0000000000000000000000000000000000000000000000000000000008152600401610c7090611612565b60405180910390fd5b8060030160019054906101000a900460ff1615610ccb576040517f08c379a0000000000000000000000000000000000000000000000000000000008152600401610cc2906115f2565b60405180910390fd5b60018160030160016101000a81548160ff02191690831515021790555060006003600083600001548152602001908152602001600020905060008160010160009054906101000a900473ffffffffffffffffffffffffffffffffffffffff1690508260010160009054906101000a900473ffffffffffffffffffffffffffffffffffffffff168260010160006101000a81548173ffffffffffffffffffffffffffffffffffffffff021916908373ffffffffffffffffffffffffffffffffffffffff16021790555060028260040160006101000a81548160ff02191690836002811115610de1577f4e487b7100000000000000000000000000000000000000000000000000000000600052602160045260246000fd5b02179055508073ffffffffffffffffffffffffffffffffffffffff166108fc84600201549081150290604051600060405180830381858888f19350505050158015610e30573d6000803e3d6000fd5b5050505050565b60046000828152602001908152602001600020600001546003600082815260200190815260200160002060010160009054906101000a900473ffffffffffffffffffffffffffffffffffffffff1673ffffffffffffffffffffffffffffffffffffffff163373ffffffffffffffffffffffffffffffffffffffff1614610ef2576040517f08c379a0000000000000000000000000000000000000000000000000000000008152600401610ee990611592565b60405180910390fd5b60006004600084815260200190815260200160002090508060030160009054906101000a900460ff1615610f5b576040517f08c379a0000000000000000000000000000000000000000000000000000000008152600401610f52906115d2565b60405180910390fd5b6000600360008360000154815260200190815260200160002060040160006101000a81548160ff02191690836002811115610fbf577f4e487b7100000000000000000000000000000000000000000000000000000000600052602160045260246000fd5b02179055508060010160009054906101000a900473ffffffffffffffffffffffffffffffffffffffff1673ffffffffffffffffffffffffffffffffffffffff166108fc82600201549081150290604051600060405180830381858888f19350505050158015611032573d6000803e3d6000fd5b50600460008481526020019081526020016000206000808201600090556001820160006101000a81549073ffffffffffffffffffffffffffffffffffffffff021916905560028201600090556003820160006101000a81549060ff02191690556003820160016101000a81549060ff02191690555050505050565b60008054906101000a900473ffffffffffffffffffffffffffffffffffffffff1681565b60046020528060005260406000206000915090508060000154908060010160009054906101000a900473ffffffffffffffffffffffffffffffffffffffff16908060020154908060030160009054906101000a900460ff16908060030160019054906101000a900460ff16905085565b82805461114d9061187b565b90600052602060002090601f01602090048101928261116f57600085556111b6565b82601f1061118857805160ff19168380011785556111b6565b828001600101855582156111b6579182015b828111156111b557825182559160200191906001019061119a565b5b5090506111c391906111c7565b5090565b5b808211156111e05760008160009055506001016111c8565b5090565b60006111f76111f28461177f565b61175a565b90508281526020810184848401111561120f57600080fd5b61121a848285611839565b509392505050565b600082601f83011261123357600080fd5b81356112438482602086016111e4565b91505092915050565b60008135905061125b81611d4a565b92915050565b6000806040838503121561127457600080fd5b600083013567ffffffffffffffff81111561128e57600080fd5b61129a85828601611222565b92505060206112ab8582860161124c565b9150509250929050565b6000602082840312156112c757600080fd5b60006112d58482850161124c565b91505092915050565b6112e7816117cc565b82525050565b6112f6816117de565b82525050565b61130581611827565b82525050565b6000611316826117b0565b61132081856117bb565b9350611330818560208601611848565b611339816119e3565b840191505092915050565b6000611351602b836117bb565b915061135c826119f4565b604082019050919050565b6000611374602a836117bb565b915061137f82611a43565b604082019050919050565b60006113976028836117bb565b91506113a282611a92565b604082019050919050565b60006113ba603b836117bb565b91506113c582611ae1565b604082019050919050565b60006113dd6017836117bb565b91506113e882611b30565b602082019050919050565b60006114006034836117bb565b915061140b82611b59565b604082019050919050565b6000611423602f836117bb565b915061142e82611ba8565b604082019050919050565b60006114466025836117bb565b915061145182611bf7565b604082019050919050565b60006114696021836117bb565b915061147482611c46565b604082019050919050565b600061148c6021836117bb565b915061149782611c95565b604082019050919050565b60006114af6020836117bb565b91506114ba82611ce4565b602082019050919050565b60006114d2601d836117bb565b91506114dd82611d0d565b602082019050919050565b6114f18161181d565b82525050565b600060208201905061150c60008301846112de565b92915050565b6000602082019050818103600083015261152b81611344565b9050919050565b6000602082019050818103600083015261154b81611367565b9050919050565b6000602082019050818103600083015261156b8161138a565b9050919050565b6000602082019050818103600083015261158b816113ad565b9050919050565b600060208201905081810360008301526115ab816113d0565b9050919050565b600060208201905081810360008301526115cb816113f3565b9050919050565b600060208201905081810360008301526115eb81611416565b9050919050565b6000602082019050818103600083015261160b81611439565b9050919050565b6000602082019050818103600083015261162b8161145c565b9050919050565b6000602082019050818103600083015261164b8161147f565b9050919050565b6000602082019050818103600083015261166b816114a2565b9050919050565b6000602082019050818103600083015261168b816114c5565b9050919050565b60006020820190506116a760008301846114e8565b92915050565b600060a0820190506116c260008301886114e8565b6116cf60208301876112de565b81810360408301526116e1818661130b565b90506116f060608301856114e8565b6116fd60808301846112fc565b9695505050505050565b600060a08201905061171c60008301886114e8565b61172960208301876112de565b61173660408301866114e8565b61174360608301856112ed565b61175060808301846112ed565b9695505050505050565b6000611764611775565b905061177082826118ad565b919050565b6000604051905090565b600067ffffffffffffffff82111561179a576117996119b4565b5b6117a3826119e3565b9050602081019050919050565b600081519050919050565b600082825260208201905092915050565b60006117d7826117fd565b9050919050565b60008115159050919050565b60008190506117f882611d36565b919050565b600073ffffffffffffffffffffffffffffffffffffffff82169050919050565b6000819050919050565b6000611832826117ea565b9050919050565b82818337600083830152505050565b60005b8381101561186657808201518184015260208101905061184b565b83811115611875576000848401525b50505050565b6000600282049050600182168061189357607f821691505b602082108114156118a7576118a6611985565b5b50919050565b6118b6826119e3565b810181811067ffffffffffffffff821117156118d5576118d46119b4565b5b80604052505050565b60006118e98261181d565b91507fffffffffffffffffffffffffffffffffffffffffffffffffffffffffffffffff82141561191c5761191b611927565b5b600182019050919050565b7f4e487b7100000000000000000000000000000000000000000000000000000000600052601160045260246000fd5b7f4e487b7100000000000000000000000000000000000000000000000000000000600052602160045260246000fd5b7f4e487b7100000000000000000000000000000000000000000000000000000000600052602260045260246000fd5b7f4e487b7100000000000000000000000000000000000000000000000000000000600052604160045260246000fd5b6000601f19601f8301169050919050565b7f536f6c6f20656c206e6f746172696f207075656465207265616c697a6172206560008201527f73746120616363696f6e2e000000000000000000000000000000000000000000602082015250565b7f456c206e6f746172696f206e6f2070756564652072656769737472617220707260008201527f6f70696564616465732e00000000000000000000000000000000000000000000602082015250565b7f456c206e6f746172696f206e6f20707565646520636f6d707261722070726f7060008201527f696564616465732e000000000000000000000000000000000000000000000000602082015250565b7f456c2076616c6f7220656e766961646f206e6f20636f696e6369646520636f6e60008201527f20656c2070726563696f206465206c612070726f7069656461642e0000000000602082015250565b7f4e6f206572657320656c2070726f706965746172696f2e000000000000000000600082015250565b7f456c2070726f706965746172696f206e6f20707565646520636f6d707261722060008201527f73752070726f7069612070726f7069656461642e000000000000000000000000602082015250565b7f4e6f2073652070756564652072656368617a617220756e6120736f6c6963697460008201527f75642079612061636570746164612e0000000000000000000000000000000000602082015250565b7f4c61207472616e73616363696f6e207961206861207369646f2076657269666960008201527f636164612e000000000000000000000000000000000000000000000000000000602082015250565b7f4c6120736f6c696369747564206e6f206861207369646f20616365707461646160008201527f2e00000000000000000000000000000000000000000000000000000000000000602082015250565b7f4c6120736f6c696369747564207961206861207369646f20616365707461646160008201527f2e00000000000000000000000000000000000000000000000000000000000000602082015250565b7f4c612070726f706965646164206e6f206573746120646973706f6e69626c652e600082015250565b7f456c2070726563696f206465626520736572206d61796f72206120302e000000600082015250565b60038110611d4757611d46611956565b5b50565b611d538161181d565b8114611d5e57600080fd5b5056fea26469706673582212206b0107a850ba1f6a04aa89752ad88734904ba2b8bc6378318d88655392cf4c5264736f6c63430008020033",
  "immutableReferences": {},
  "source": "// SPDX-License-Identifier: MIT\r\npragma solidity ^0.8.0;\r\n\r\ncontract CompraventaInmobiliaria {\r\n    address public notario;\r\n    address public propietario;\r\n    address public comprador;\r\n\r\n    enum EstadoPropiedad { Disponible, EnProcesoDeVenta, Vendida }\r\n\r\n    struct Propiedad {\r\n        uint id;\r\n        address propietario;\r\n        string descripcion;\r\n        uint precio;\r\n        EstadoPropiedad estado;\r\n    }\r\n\r\n    struct SolicitudCompraventa {\r\n        uint propiedadId;\r\n        address comprador;\r\n        uint oferta;\r\n        bool aceptada;\r\n        bool verificada;\r\n    }\r\n\r\n    mapping(uint => Propiedad) public propiedades;\r\n    mapping(uint => SolicitudCompraventa) public solicitudes;\r\n\r\n    uint public contadorPropiedades;\r\n    uint public contadorSolicitudes;\r\n\r\n    modifier soloPropietario(uint _propiedadId) {\r\n        require(msg.sender == propiedades[_propiedadId].propietario, \"No eres el propietario.\");\r\n        _;\r\n    }\r\n\r\n    modifier soloNotario() {\r\n        require(msg.sender == notario, \"Solo el notario puede realizar esta accion.\");\r\n        _;\r\n    }\r\n\r\n    modifier soloComprador() {\r\n        require(msg.sender == comprador, \"Solo el comprador puede realizar esta accion.\");\r\n        _;\r\n    }\r\n\r\n    constructor(address _notario) {\r\n        require(_notario != msg.sender, \"El notario no puede ser el propietario\");\r\n        notario = _notario;\r\n    }\r\n\r\n    function registrarPropiedad(string memory _descripcion, uint _precio) public {\r\n        require(msg.sender != notario, \"El notario no puede registrar propiedades.\");\r\n        require(_precio > 0, \"El precio debe ser mayor a 0.\");\r\n        \r\n        contadorPropiedades++;\r\n        propiedades[contadorPropiedades] = Propiedad(\r\n            contadorPropiedades,\r\n            msg.sender,\r\n            _descripcion,\r\n            _precio,\r\n            EstadoPropiedad.Disponible\r\n        );\r\n    }\r\n\r\n    function solicitarCompraventa(uint _propiedadId) public payable {\r\n        Propiedad storage propiedad = propiedades[_propiedadId];\r\n        require(propiedad.estado == EstadoPropiedad.Disponible, \"La propiedad no esta disponible.\");\r\n        require(msg.sender != propiedad.propietario, \"El propietario no puede comprar su propia propiedad.\");\r\n        require(msg.sender != notario, \"El notario no puede comprar propiedades.\");\r\n        require(msg.value == propiedad.precio, \"El valor enviado no coincide con el precio de la propiedad.\");\r\n\r\n        contadorSolicitudes++;\r\n        solicitudes[contadorSolicitudes] = SolicitudCompraventa(_propiedadId, msg.sender, msg.value, false, false);\r\n        comprador = msg.sender;\r\n\r\n        propiedad.estado = EstadoPropiedad.EnProcesoDeVenta;\r\n    }\r\n\r\n    function aceptarSolicitud(uint _solicitudId) public soloPropietario(solicitudes[_solicitudId].propiedadId) {\r\n        SolicitudCompraventa storage solicitud = solicitudes[_solicitudId];\r\n        require(!solicitud.aceptada, \"La solicitud ya ha sido aceptada.\");\r\n\r\n        solicitud.aceptada = true;\r\n    }\r\n\r\n    function rechazarSolicitud(uint _solicitudId) public soloPropietario(solicitudes[_solicitudId].propiedadId) {\r\n        SolicitudCompraventa storage solicitud = solicitudes[_solicitudId];\r\n        require(!solicitud.aceptada, \"No se puede rechazar una solicitud ya aceptada.\");\r\n\r\n        propiedades[solicitud.propiedadId].estado = EstadoPropiedad.Disponible;\r\n        payable(solicitud.comprador).transfer(solicitud.oferta);\r\n        delete solicitudes[_solicitudId];\r\n    }\r\n\r\n    function verificarTransaccion(uint _solicitudId) public soloNotario {\r\n        SolicitudCompraventa storage solicitud = solicitudes[_solicitudId];\r\n        require(solicitud.aceptada, \"La solicitud no ha sido aceptada.\");\r\n        require(!solicitud.verificada, \"La transaccion ya ha sido verificada.\");\r\n\r\n        solicitud.verificada = true;\r\n        Propiedad storage propiedad = propiedades[solicitud.propiedadId];\r\n\r\n        address propietarioAnterior = propiedad.propietario;\r\n        propiedad.propietario = solicitud.comprador;\r\n        propiedad.estado = EstadoPropiedad.Vendida;\r\n\r\n        payable(propietarioAnterior).transfer(solicitud.oferta);\r\n    }\r\n}\r\n",
  "sourcePath": "C:\\Users\\exeac\\source\\repos\\prototipo-compraventa\\contracts\\CompraventaInmobiliaria.sol",
  "compiler": {
    "name": "solc",
    "version": "0.8.2+commit.661d1103.Emscripten.clang"
  },
  "schemaVersion": "3.4.16",
  "updatedAt": "2025-03-05T02:40:54.210Z",
  "networkType": "ethereum",
  "devdoc": {
    "kind": "dev",
    "methods": {},
    "version": 1
  },
  "userdoc": {
    "kind": "user",
    "methods": {},
    "version": 1
  }
}