{
  "contractName": "CompraventaInmobiliaria",
  "abi": [
    {
      "inputs": [],
      "stateMutability": "nonpayable",
      "type": "constructor"
    },
    {
      "anonymous": false,
      "inputs": [
        {
          "indexed": false,
          "internalType": "uint256",
          "name": "id",
          "type": "uint256"
        },
        {
          "indexed": false,
          "internalType": "string",
          "name": "descripcion",
          "type": "string"
        },
        {
          "indexed": false,
          "internalType": "address",
          "name": "propietario",
          "type": "address"
        }
      ],
      "name": "PropiedadRegistrada",
      "type": "event"
    },
    {
      "anonymous": false,
      "inputs": [
        {
          "indexed": false,
          "internalType": "uint256",
          "name": "id",
          "type": "uint256"
        },
        {
          "indexed": false,
          "internalType": "address",
          "name": "nuevoPropietario",
          "type": "address"
        },
        {
          "indexed": false,
          "internalType": "uint256",
          "name": "precio",
          "type": "uint256"
        }
      ],
      "name": "PropiedadVendida",
      "type": "event"
    },
    {
      "inputs": [],
      "name": "contadorPropiedades",
      "outputs": [
        {
          "internalType": "uint256",
          "name": "",
          "type": "uint256"
        }
      ],
      "stateMutability": "view",
      "type": "function",
      "constant": true
    },
    {
      "inputs": [
        {
          "internalType": "uint256",
          "name": "",
          "type": "uint256"
        }
      ],
      "name": "propiedades",
      "outputs": [
        {
          "internalType": "uint256",
          "name": "id",
          "type": "uint256"
        },
        {
          "internalType": "string",
          "name": "descripcion",
          "type": "string"
        },
        {
          "internalType": "address payable",
          "name": "propietario",
          "type": "address"
        },
        {
          "internalType": "bool",
          "name": "enVenta",
          "type": "bool"
        },
        {
          "internalType": "uint256",
          "name": "precio",
          "type": "uint256"
        }
      ],
      "stateMutability": "view",
      "type": "function",
      "constant": true
    },
    {
      "inputs": [
        {
          "internalType": "string",
          "name": "descripcion",
          "type": "string"
        },
        {
          "internalType": "uint256",
          "name": "precio",
          "type": "uint256"
        }
      ],
      "name": "registrarPropiedad",
      "outputs": [],
      "stateMutability": "nonpayable",
      "type": "function"
    },
    {
      "inputs": [
        {
          "internalType": "uint256",
          "name": "id",
          "type": "uint256"
        }
      ],
      "name": "comprarPropiedad",
      "outputs": [],
      "stateMutability": "payable",
      "type": "function",
      "payable": true
    }
  ],
  "bytecode": "0x608060405234801561001057600080fd5b50610e5b806100206000396000f3fe60806040526004361061003f5760003560e01c80630bb5643b1461004457806350c257f41461008557806384926dfa146100b0578063a3b1f5d8146100d9575b600080fd5b34801561005057600080fd5b5061006b6004803603810190610066919061075a565b6100f5565b60405161007c959493929190610a0f565b60405180910390f35b34801561009157600080fd5b5061009a6101e0565b6040516100a7919061097f565b60405180910390f35b3480156100bc57600080fd5b506100d760048036038101906100d29190610706565b6101e6565b005b6100f360048036038101906100ee919061075a565b610372565b005b600160205280600052604060002060009150905080600001549080600101805461011e90610b82565b80601f016020809104026020016040519081016040528092919081815260200182805461014a90610b82565b80156101975780601f1061016c57610100808354040283529160200191610197565b820191906000526020600020905b81548152906001019060200180831161017a57829003601f168201915b5050505050908060020160009054906101000a900473ffffffffffffffffffffffffffffffffffffffff16908060020160149054906101000a900460ff16908060030154905085565b60005481565b60008111610229576040517f08c379a00000000000000000000000000000000000000000000000000000000081526004016102209061093f565b60405180910390fd5b60008081548092919061023b90610be5565b91905055506040518060a0016040528060005481526020018381526020013373ffffffffffffffffffffffffffffffffffffffff1681526020016001151581526020018281525060016000805481526020019081526020016000206000820151816000015560208201518160010190805190602001906102bc9291906105e6565b5060408201518160020160006101000a81548173ffffffffffffffffffffffffffffffffffffffff021916908373ffffffffffffffffffffffffffffffffffffffff16021790555060608201518160020160146101000a81548160ff021916908315150217905550608082015181600301559050507f4bfdbe4ee34bee845e9e9c570afcd88b745f871918c672d855fedccf3066e79b6000548333604051610366939291906109d1565b60405180910390a15050565b60008111801561038457506000548111155b6103c3576040517f08c379a00000000000000000000000000000000000000000000000000000000081526004016103ba906108df565b60405180910390fd5b60006001600083815260200190815260200160002090508060020160149054906101000a900460ff1661042b576040517f08c379a00000000000000000000000000000000000000000000000000000000081526004016104229061091f565b60405180910390fd5b8060030154341015610472576040517f08c379a0000000000000000000000000000000000000000000000000000000008152600401610469906108ff565b60405180910390fd5b60008160020160009054906101000a900473ffffffffffffffffffffffffffffffffffffffff1673ffffffffffffffffffffffffffffffffffffffff16346040516104bc906108ca565b60006040518083038185875af1925050503d80600081146104f9576040519150601f19603f3d011682016040523d82523d6000602084013e6104fe565b606091505b5050905080610542576040517f08c379a00000000000000000000000000000000000000000000000000000000081526004016105399061095f565b60405180910390fd5b338260020160006101000a81548173ffffffffffffffffffffffffffffffffffffffff021916908373ffffffffffffffffffffffffffffffffffffffff16021790555060008260020160146101000a81548160ff0219169083151502179055507f11b35db11b3ba33eda21a8bbae5ae73e5efb465ccf958605eb275ff1106664bf833384600301546040516105d99392919061099a565b60405180910390a1505050565b8280546105f290610b82565b90600052602060002090601f016020900481019282610614576000855561065b565b82601f1061062d57805160ff191683800117855561065b565b8280016001018555821561065b579182015b8281111561065a57825182559160200191906001019061063f565b5b509050610668919061066c565b5090565b5b8082111561068557600081600090555060010161066d565b5090565b600061069c61069784610a8e565b610a69565b9050828152602081018484840111156106b457600080fd5b6106bf848285610b40565b509392505050565b600082601f8301126106d857600080fd5b81356106e8848260208601610689565b91505092915050565b60008135905061070081610e0e565b92915050565b6000806040838503121561071957600080fd5b600083013567ffffffffffffffff81111561073357600080fd5b61073f858286016106c7565b9250506020610750858286016106f1565b9150509250929050565b60006020828403121561076c57600080fd5b600061077a848285016106f1565b91505092915050565b61078c81610af8565b82525050565b61079b81610ae6565b82525050565b6107aa81610b0a565b82525050565b60006107bb82610abf565b6107c58185610ad5565b93506107d5818560208601610b4f565b6107de81610cbb565b840191505092915050565b60006107f6601483610ad5565b915061080182610ccc565b602082019050919050565b6000610819602483610ad5565b915061082482610cf5565b604082019050919050565b600061083c600083610aca565b915061084782610d44565b600082019050919050565b600061085f601e83610ad5565b915061086a82610d47565b602082019050919050565b6000610882602283610ad5565b915061088d82610d70565b604082019050919050565b60006108a5602183610ad5565b91506108b082610dbf565b604082019050919050565b6108c481610b36565b82525050565b60006108d58261082f565b9150819050919050565b600060208201905081810360008301526108f8816107e9565b9050919050565b600060208201905081810360008301526109188161080c565b9050919050565b6000602082019050818103600083015261093881610852565b9050919050565b6000602082019050818103600083015261095881610875565b9050919050565b6000602082019050818103600083015261097881610898565b9050919050565b600060208201905061099460008301846108bb565b92915050565b60006060820190506109af60008301866108bb565b6109bc6020830185610792565b6109c960408301846108bb565b949350505050565b60006060820190506109e660008301866108bb565b81810360208301526109f881856107b0565b9050610a076040830184610792565b949350505050565b600060a082019050610a2460008301886108bb565b8181036020830152610a3681876107b0565b9050610a456040830186610783565b610a5260608301856107a1565b610a5f60808301846108bb565b9695505050505050565b6000610a73610a84565b9050610a7f8282610bb4565b919050565b6000604051905090565b600067ffffffffffffffff821115610aa957610aa8610c8c565b5b610ab282610cbb565b9050602081019050919050565b600081519050919050565b600081905092915050565b600082825260208201905092915050565b6000610af182610b16565b9050919050565b6000610b0382610b16565b9050919050565b60008115159050919050565b600073ffffffffffffffffffffffffffffffffffffffff82169050919050565b6000819050919050565b82818337600083830152505050565b60005b83811015610b6d578082015181840152602081019050610b52565b83811115610b7c576000848401525b50505050565b60006002820490506001821680610b9a57607f821691505b60208210811415610bae57610bad610c5d565b5b50919050565b610bbd82610cbb565b810181811067ffffffffffffffff82111715610bdc57610bdb610c8c565b5b80604052505050565b6000610bf082610b36565b91507fffffffffffffffffffffffffffffffffffffffffffffffffffffffffffffffff821415610c2357610c22610c2e565b5b600182019050919050565b7f4e487b7100000000000000000000000000000000000000000000000000000000600052601160045260246000fd5b7f4e487b7100000000000000000000000000000000000000000000000000000000600052602260045260246000fd5b7f4e487b7100000000000000000000000000000000000000000000000000000000600052604160045260246000fd5b6000601f19601f8301169050919050565b7f50726f706965646164206e6f2076616c6964612e000000000000000000000000600082015250565b7f466f6e646f7320696e737566696369656e7465732070617261206c6120636f6d60008201527f7072612e00000000000000000000000000000000000000000000000000000000602082015250565b50565b7f4c612070726f706965646164206e6f206573746120656e2076656e74612e0000600082015250565b7f456c2070726563696f206465626520736572206d61796f72207175652063657260008201527f6f2e000000000000000000000000000000000000000000000000000000000000602082015250565b7f46616c6c6f206c61207472616e73666572656e63696120646520666f6e646f7360008201527f2e00000000000000000000000000000000000000000000000000000000000000602082015250565b610e1781610b36565b8114610e2257600080fd5b5056fea26469706673582212206911ce15c19b46ae07be4f74584e25b93d647c00799887001b461fe9dec31bb564736f6c63430008020033",
  "immutableReferences": {},
  "source": "// SPDX-License-Identifier: MIT\r\npragma solidity ^0.8.0;\r\n\r\ncontract CompraventaInmobiliaria {\r\n    struct Propiedad {\r\n        uint id;\r\n        string descripcion;\r\n        address payable propietario;\r\n        bool enVenta;\r\n        uint precio;\r\n    }\r\n\r\n    uint public contadorPropiedades;\r\n    mapping(uint => Propiedad) public propiedades;\r\n\r\n    event PropiedadRegistrada(uint id, string descripcion, address propietario);\r\n    event PropiedadVendida(uint id, address nuevoPropietario, uint precio);\r\n\r\n    // Constructor vacio\r\n    constructor() {}\r\n\r\n    // Registrar una nueva propiedad\r\n    function registrarPropiedad(string memory descripcion, uint precio) public {\r\n        require(precio > 0, \"El precio debe ser mayor que cero.\");\r\n        contadorPropiedades++;\r\n\r\n        propiedades[contadorPropiedades] = Propiedad(\r\n            contadorPropiedades,\r\n            descripcion,\r\n            payable(msg.sender),\r\n            true,\r\n            precio\r\n        );\r\n\r\n        emit PropiedadRegistrada(contadorPropiedades, descripcion, msg.sender);\r\n    }\r\n\r\n    // Comprar una propiedad\r\n    function comprarPropiedad(uint id) public payable {\r\n        require(id > 0 && id <= contadorPropiedades, \"Propiedad no valida.\");\r\n        Propiedad storage propiedad = propiedades[id];\r\n        require(propiedad.enVenta, \"La propiedad no esta en venta.\");\r\n        require(msg.value >= propiedad.precio, \"Fondos insuficientes para la compra.\");\r\n\r\n        (bool enviado, ) = propiedad.propietario.call{value: msg.value}(\"\");\r\n        require(enviado, \"Fallo la transferencia de fondos.\");\r\n\r\n        propiedad.propietario = payable(msg.sender);\r\n        propiedad.enVenta = false;\r\n\r\n        emit PropiedadVendida(id, msg.sender, propiedad.precio);\r\n    }\r\n}\r\n",
  "sourcePath": "C:\\Users\\exeac\\prototipo-compraventa\\contracts\\CompraventaInmobiliaria.sol",
  "compiler": {
    "name": "solc",
    "version": "0.8.2+commit.661d1103.Emscripten.clang"
  },
  "schemaVersion": "3.4.16",
  "updatedAt": "2025-02-03T01:48:02.644Z",
  "networkType": "ethereum",
  "devdoc": {
    "kind": "dev",
    "methods": {},
    "version": 1
  },
  "userdoc": {
    "kind": "user",
    "methods": {},
    "version": 1
  }
}